{
  "_format": "hh-sol-artifact-1",
  "contractName": "PetVote",
  "sourceName": "contracts/WavePortal.sol",
  "abi": [
    {
      "inputs": [],
      "stateMutability": "nonpayable",
      "type": "constructor"
    },
    {
      "anonymous": false,
      "inputs": [
        {
          "indexed": true,
          "internalType": "address",
          "name": "from",
          "type": "address"
        },
        {
          "indexed": false,
          "internalType": "uint256",
          "name": "timestamp",
          "type": "uint256"
        },
        {
          "indexed": false,
          "internalType": "string",
          "name": "reason",
          "type": "string"
        },
        {
          "indexed": false,
          "internalType": "string",
          "name": "petName",
          "type": "string"
        }
      ],
      "name": "NewVote",
      "type": "event"
    },
    {
      "inputs": [],
      "name": "alreadyVoted",
      "outputs": [
        {
          "internalType": "bool",
          "name": "",
          "type": "bool"
        }
      ],
      "stateMutability": "view",
      "type": "function"
    },
    {
      "inputs": [],
      "name": "getOptions",
      "outputs": [
        {
          "components": [
            {
              "internalType": "string",
              "name": "petName",
              "type": "string"
            },
            {
              "internalType": "uint256",
              "name": "voteCount",
              "type": "uint256"
            }
          ],
          "internalType": "struct PetVote.Option[]",
          "name": "",
          "type": "tuple[]"
        }
      ],
      "stateMutability": "view",
      "type": "function"
    },
    {
      "inputs": [],
      "name": "getVoteHistory",
      "outputs": [
        {
          "components": [
            {
              "internalType": "address",
              "name": "voter",
              "type": "address"
            },
            {
              "internalType": "string",
              "name": "reason",
              "type": "string"
            },
            {
              "internalType": "string",
              "name": "vote",
              "type": "string"
            }
          ],
          "internalType": "struct PetVote.VoteHistory[]",
          "name": "",
          "type": "tuple[]"
        }
      ],
      "stateMutability": "view",
      "type": "function"
    },
    {
      "inputs": [
        {
          "internalType": "string",
          "name": "",
          "type": "string"
        }
      ],
      "name": "options",
      "outputs": [
        {
          "internalType": "string",
          "name": "petName",
          "type": "string"
        },
        {
          "internalType": "uint256",
          "name": "voteCount",
          "type": "uint256"
        }
      ],
      "stateMutability": "view",
      "type": "function"
    },
    {
      "inputs": [
        {
          "internalType": "string",
          "name": "_petName",
          "type": "string"
        },
        {
          "internalType": "string",
          "name": "_reason",
          "type": "string"
        }
      ],
      "name": "vote",
      "outputs": [],
      "stateMutability": "nonpayable",
      "type": "function"
    },
    {
      "inputs": [
        {
          "internalType": "uint256",
          "name": "",
          "type": "uint256"
        }
      ],
      "name": "voterHistory",
      "outputs": [
        {
          "internalType": "address",
          "name": "voter",
          "type": "address"
        },
        {
          "internalType": "string",
          "name": "reason",
          "type": "string"
        },
        {
          "internalType": "string",
          "name": "vote",
          "type": "string"
        }
      ],
      "stateMutability": "view",
      "type": "function"
    },
    {
      "inputs": [
        {
          "internalType": "address",
          "name": "",
          "type": "address"
        }
      ],
      "name": "voters",
      "outputs": [
        {
          "internalType": "address",
          "name": "voter",
          "type": "address"
        },
        {
          "internalType": "bool",
          "name": "voted",
          "type": "bool"
        },
        {
          "internalType": "string",
          "name": "vote",
          "type": "string"
        }
      ],
      "stateMutability": "view",
      "type": "function"
    }
  ],
  "bytecode": "0x60806040526040518060a001604052806040518060400160405280600481526020017f446f67730000000000000000000000000000000000000000000000000000000081525081526020016040518060400160405280600481526020017f436174730000000000000000000000000000000000000000000000000000000081525081526020016040518060400160405280600581526020017f426972647300000000000000000000000000000000000000000000000000000081525081526020016040518060400160405280600681526020017f466973686573000000000000000000000000000000000000000000000000000081525081526020016040518060400160405280600781526020017f547572746c657300000000000000000000000000000000000000000000000000815250815250600090600562000146929190620002e8565b503480156200015457600080fd5b5060005b6005811015620002e157604051806040016040528060008360058110620001a8577f4e487b7100000000000000000000000000000000000000000000000000000000600052603260045260246000fd5b018054620001b6906200052e565b80601f0160208091040260200160405190810160405280929190818152602001828054620001e4906200052e565b8015620002355780601f10620002095761010080835404028352916020019162000235565b820191906000526020600020905b8154815290600101906020018083116200021757829003601f168201915b50505050508152602001600081525060076000836005811062000281577f4e487b7100000000000000000000000000000000000000000000000000000000600052603260045260246000fd5b01604051620002919190620004eb565b90815260200160405180910390206000820151816000019080519060200190620002bd92919062000342565b50602082015181600101559050508080620002d89062000564565b91505062000158565b5062000610565b82600581019282156200032f579160200282015b828111156200032e5782518290805190602001906200031d92919062000342565b5091602001919060010190620002fc565b5b5090506200033e9190620003d3565b5090565b82805462000350906200052e565b90600052602060002090601f016020900481019282620003745760008555620003c0565b82601f106200038f57805160ff1916838001178555620003c0565b82800160010185558215620003c0579182015b82811115620003bf578251825591602001919060010190620003a2565b5b509050620003cf9190620003fb565b5090565b5b80821115620003f75760008181620003ed91906200041a565b50600101620003d4565b5090565b5b8082111562000416576000816000905550600101620003fc565b5090565b50805462000428906200052e565b6000825580601f106200043c57506200045d565b601f0160209004906000526020600020908101906200045c9190620003fb565b5b50565b600081546200046f816200052e565b6200047b818662000519565b94506001821660008114620004995760018114620004ab57620004e2565b60ff19831686528186019350620004e2565b620004b68562000504565b60005b83811015620004da57815481890152600182019150602081019050620004b9565b838801955050505b50505092915050565b6000620004f9828462000460565b915081905092915050565b60008190508160005260206000209050919050565b600081905092915050565b6000819050919050565b600060028204905060018216806200054757607f821691505b602082108114156200055e576200055d620005e1565b5b50919050565b6000620005718262000524565b91507fffffffffffffffffffffffffffffffffffffffffffffffffffffffffffffffff821415620005a757620005a6620005b2565b5b600182019050919050565b7f4e487b7100000000000000000000000000000000000000000000000000000000600052601160045260246000fd5b7f4e487b7100000000000000000000000000000000000000000000000000000000600052602260045260246000fd5b61178180620006206000396000f3fe608060405234801561001057600080fd5b506004361061007d5760003560e01c80639db2eb361161005b5780639db2eb36146100ef578063a3ec138d14610121578063cc2ee19614610153578063e8d5940d146101715761007d565b80630b280dcf1461008257806317b5ed11146100b357806330c713c7146100d1575b600080fd5b61009c60048036038101906100979190610d98565b61018d565b6040516100aa9291906112d7565b60405180910390f35b6100bb61024f565b6040516100c891906112bc565b60405180910390f35b6100d961031e565b6040516100e6919061129a565b60405180910390f35b61010960048036038101906101049190610e45565b6104f7565b60405161011893929190611233565b60405180910390f35b61013b60048036038101906101369190610d6f565b610661565b60405161014a939291906111f5565b60405180910390f35b61015b610740565b6040516101689190611278565b60405180910390f35b61018b60048036038101906101869190610dd9565b61092b565b005b6007818051602081018201805184825260208301602085012081835280955050505050506000915090508060000180546101c690611581565b80601f01602080910402602001604051908101604052809291908181526020018280546101f290611581565b801561023f5780601f106102145761010080835404028352916020019161023f565b820191906000526020600020905b81548152906001019060200180831161022257829003601f168201915b5050505050908060010154905082565b600033600073ffffffffffffffffffffffffffffffffffffffff168173ffffffffffffffffffffffffffffffffffffffff1614156102c2576040517f08c379a00000000000000000000000000000000000000000000000000000000081526004016102b990611327565b60405180910390fd5b6000600660003373ffffffffffffffffffffffffffffffffffffffff1673ffffffffffffffffffffffffffffffffffffffff16815260200190815260200160002060000160149054906101000a900460ff169050809250505090565b60606005805480602002602001604051908101604052809291908181526020016000905b828210156104ee57838290600052602060002090600302016040518060600160405290816000820160009054906101000a900473ffffffffffffffffffffffffffffffffffffffff1673ffffffffffffffffffffffffffffffffffffffff1673ffffffffffffffffffffffffffffffffffffffff1681526020016001820180546103cb90611581565b80601f01602080910402602001604051908101604052809291908181526020018280546103f790611581565b80156104445780601f1061041957610100808354040283529160200191610444565b820191906000526020600020905b81548152906001019060200180831161042757829003601f168201915b5050505050815260200160028201805461045d90611581565b80601f016020809104026020016040519081016040528092919081815260200182805461048990611581565b80156104d65780601f106104ab576101008083540402835291602001916104d6565b820191906000526020600020905b8154815290600101906020018083116104b957829003601f168201915b50505050508152505081526020019060010190610342565b50505050905090565b6005818154811061050757600080fd5b90600052602060002090600302016000915090508060000160009054906101000a900473ffffffffffffffffffffffffffffffffffffffff169080600101805461055090611581565b80601f016020809104026020016040519081016040528092919081815260200182805461057c90611581565b80156105c95780601f1061059e576101008083540402835291602001916105c9565b820191906000526020600020905b8154815290600101906020018083116105ac57829003601f168201915b5050505050908060020180546105de90611581565b80601f016020809104026020016040519081016040528092919081815260200182805461060a90611581565b80156106575780601f1061062c57610100808354040283529160200191610657565b820191906000526020600020905b81548152906001019060200180831161063a57829003601f168201915b5050505050905083565b60066020528060005260406000206000915090508060000160009054906101000a900473ffffffffffffffffffffffffffffffffffffffff16908060000160149054906101000a900460ff16908060010180546106bd90611581565b80601f01602080910402602001604051908101604052809291908181526020018280546106e990611581565b80156107365780601f1061070b57610100808354040283529160200191610736565b820191906000526020600020905b81548152906001019060200180831161071957829003601f168201915b5050505050905083565b60606000600567ffffffffffffffff811115610785577f4e487b7100000000000000000000000000000000000000000000000000000000600052604160045260246000fd5b6040519080825280602002602001820160405280156107be57816020015b6107ab610c20565b8152602001906001900390816107a35790505b50905060005b600581101561092357600760008260058110610809577f4e487b7100000000000000000000000000000000000000000000000000000000600052603260045260246000fd5b0160405161081791906111de565b908152602001604051809103902060405180604001604052908160008201805461084090611581565b80601f016020809104026020016040519081016040528092919081815260200182805461086c90611581565b80156108b95780601f1061088e576101008083540402835291602001916108b9565b820191906000526020600020905b81548152906001019060200180831161089c57829003601f168201915b50505050508152602001600182015481525050828281518110610905577f4e487b7100000000000000000000000000000000000000000000000000000000600052603260045260246000fd5b6020026020010181905250808061091b906115e4565b9150506107c4565b508091505090565b33600073ffffffffffffffffffffffffffffffffffffffff168173ffffffffffffffffffffffffffffffffffffffff16141561099c576040517f08c379a000000000000000000000000000000000000000000000000000000000815260040161099390611327565b60405180910390fd5b6000600660003373ffffffffffffffffffffffffffffffffffffffff1673ffffffffffffffffffffffffffffffffffffffff16815260200190815260200160002090508060000160149054906101000a900460ff1615610a31576040517f08c379a0000000000000000000000000000000000000000000000000000000008152600401610a2890611307565b60405180910390fd5b6000600785604051610a4391906111c7565b908152602001604051809103902090506001816001016000828254610a6891906114a1565b9250508190555060018260000160146101000a81548160ff02191690831515021790555084826001019080519060200190610aa4929190610c3a565b50338260000160006101000a81548173ffffffffffffffffffffffffffffffffffffffff021916908373ffffffffffffffffffffffffffffffffffffffff160217905550600560405180606001604052803373ffffffffffffffffffffffffffffffffffffffff16815260200186815260200187815250908060018154018082558091505060019003906000526020600020906003020160009091909190915060008201518160000160006101000a81548173ffffffffffffffffffffffffffffffffffffffff021916908373ffffffffffffffffffffffffffffffffffffffff1602179055506020820151816001019080519060200190610ba7929190610c3a565b506040820151816002019080519060200190610bc4929190610c3a565b5050503373ffffffffffffffffffffffffffffffffffffffff167f13e7b5c885fa9ade98c2aec211d4e53bd2c9edeab01f231bbb5f9e1336d52890428688604051610c1193929190611347565b60405180910390a25050505050565b604051806040016040528060608152602001600081525090565b828054610c4690611581565b90600052602060002090601f016020900481019282610c685760008555610caf565b82601f10610c8157805160ff1916838001178555610caf565b82800160010185558215610caf579182015b82811115610cae578251825591602001919060010190610c93565b5b509050610cbc9190610cc0565b5090565b5b80821115610cd9576000816000905550600101610cc1565b5090565b6000610cf0610ceb846113b1565b61138c565b905082815260208101848484011115610d0857600080fd5b610d1384828561153f565b509392505050565b600081359050610d2a8161171d565b92915050565b600082601f830112610d4157600080fd5b8135610d51848260208601610cdd565b91505092915050565b600081359050610d6981611734565b92915050565b600060208284031215610d8157600080fd5b6000610d8f84828501610d1b565b91505092915050565b600060208284031215610daa57600080fd5b600082013567ffffffffffffffff811115610dc457600080fd5b610dd084828501610d30565b91505092915050565b60008060408385031215610dec57600080fd5b600083013567ffffffffffffffff811115610e0657600080fd5b610e1285828601610d30565b925050602083013567ffffffffffffffff811115610e2f57600080fd5b610e3b85828601610d30565b9150509250929050565b600060208284031215610e5757600080fd5b6000610e6584828501610d5a565b91505092915050565b6000610e7a8383611115565b905092915050565b6000610e8e8383611152565b905092915050565b610e9f816114f7565b82525050565b610eae816114f7565b82525050565b6000610ebf82611417565b610ec98185611452565b935083602082028501610edb856113e2565b8060005b85811015610f175784840389528151610ef88582610e6e565b9450610f0383611438565b925060208a01995050600181019050610edf565b50829750879550505050505092915050565b6000610f3482611422565b610f3e8185611463565b935083602082028501610f50856113f2565b8060005b85811015610f8c5784840389528151610f6d8582610e82565b9450610f7883611445565b925060208a01995050600181019050610f54565b50829750879550505050505092915050565b610fa781611509565b82525050565b6000610fb88261142d565b610fc28185611474565b9350610fd281856020860161154e565b610fdb816116ba565b840191505092915050565b6000610ff18261142d565b610ffb8185611485565b935061100b81856020860161154e565b611014816116ba565b840191505092915050565b600061102a8261142d565b6110348185611496565b935061104481856020860161154e565b80840191505092915050565b6000815461105d81611581565b6110678186611496565b945060018216600081146110825760018114611093576110c6565b60ff198316865281860193506110c6565b61109c85611402565b60005b838110156110be5781548189015260018201915060208101905061109f565b838801955050505b50505092915050565b60006110dc601283611485565b91506110e7826116cb565b602082019050919050565b60006110ff601283611485565b915061110a826116f4565b602082019050919050565b600060408301600083015184820360008601526111328282610fad565b915050602083015161114760208601826111a9565b508091505092915050565b600060608301600083015161116a6000860182610e96565b50602083015184820360208601526111828282610fad565b9150506040830151848203604086015261119c8282610fad565b9150508091505092915050565b6111b281611535565b82525050565b6111c181611535565b82525050565b60006111d3828461101f565b915081905092915050565b60006111ea8284611050565b915081905092915050565b600060608201905061120a6000830186610ea5565b6112176020830185610f9e565b81810360408301526112298184610fe6565b9050949350505050565b60006060820190506112486000830186610ea5565b818103602083015261125a8185610fe6565b9050818103604083015261126e8184610fe6565b9050949350505050565b600060208201905081810360008301526112928184610eb4565b905092915050565b600060208201905081810360008301526112b48184610f29565b905092915050565b60006020820190506112d16000830184610f9e565b92915050565b600060408201905081810360008301526112f18185610fe6565b905061130060208301846111b8565b9392505050565b60006020820190508181036000830152611320816110cf565b9050919050565b60006020820190508181036000830152611340816110f2565b9050919050565b600060608201905061135c60008301866111b8565b818103602083015261136e8185610fe6565b905081810360408301526113828184610fe6565b9050949350505050565b60006113966113a7565b90506113a282826115b3565b919050565b6000604051905090565b600067ffffffffffffffff8211156113cc576113cb61168b565b5b6113d5826116ba565b9050602081019050919050565b6000819050602082019050919050565b6000819050602082019050919050565b60008190508160005260206000209050919050565b600081519050919050565b600081519050919050565b600081519050919050565b6000602082019050919050565b6000602082019050919050565b600082825260208201905092915050565b600082825260208201905092915050565b600082825260208201905092915050565b600082825260208201905092915050565b600081905092915050565b60006114ac82611535565b91506114b783611535565b9250827fffffffffffffffffffffffffffffffffffffffffffffffffffffffffffffffff038211156114ec576114eb61162d565b5b828201905092915050565b600061150282611515565b9050919050565b60008115159050919050565b600073ffffffffffffffffffffffffffffffffffffffff82169050919050565b6000819050919050565b82818337600083830152505050565b60005b8381101561156c578082015181840152602081019050611551565b8381111561157b576000848401525b50505050565b6000600282049050600182168061159957607f821691505b602082108114156115ad576115ac61165c565b5b50919050565b6115bc826116ba565b810181811067ffffffffffffffff821117156115db576115da61168b565b5b80604052505050565b60006115ef82611535565b91507fffffffffffffffffffffffffffffffffffffffffffffffffffffffffffffffff8214156116225761162161162d565b5b600182019050919050565b7f4e487b7100000000000000000000000000000000000000000000000000000000600052601160045260246000fd5b7f4e487b7100000000000000000000000000000000000000000000000000000000600052602260045260246000fd5b7f4e487b7100000000000000000000000000000000000000000000000000000000600052604160045260246000fd5b6000601f19601f8301169050919050565b7f596f7520616c726561647920766f7465642e0000000000000000000000000000600082015250565b7f4e6f742076616c69642061646472657373210000000000000000000000000000600082015250565b611726816114f7565b811461173157600080fd5b50565b61173d81611535565b811461174857600080fd5b5056fea26469706673582212205c0d0f64dd7c7f017667505d7c1904169bfc0f15a1cb3fc67588668325c10b3664736f6c63430008040033",
  "linkReferences": {},
  "deployedLinkReferences": {}
}